{
  "_format": "hh-sol-artifact-1",
  "contractName": "YokuTalkie",
  "sourceName": "contracts/YokuTalkie.sol",
  "abi": [
    {
      "inputs": [
        {
          "internalType": "string",
          "name": "initBaseURI",
          "type": "string"
        }
      ],
      "stateMutability": "nonpayable",
      "type": "constructor"
    },
    {
      "inputs": [
        {
          "internalType": "address",
          "name": "sender",
          "type": "address"
        },
        {
          "internalType": "uint256",
          "name": "tokenId",
          "type": "uint256"
        },
        {
          "internalType": "address",
          "name": "owner",
          "type": "address"
        }
      ],
      "name": "ERC721IncorrectOwner",
      "type": "error"
    },
    {
      "inputs": [
        {
          "internalType": "address",
          "name": "operator",
          "type": "address"
        },
        {
          "internalType": "uint256",
          "name": "tokenId",
          "type": "uint256"
        }
      ],
      "name": "ERC721InsufficientApproval",
      "type": "error"
    },
    {
      "inputs": [
        {
          "internalType": "address",
          "name": "approver",
          "type": "address"
        }
      ],
      "name": "ERC721InvalidApprover",
      "type": "error"
    },
    {
      "inputs": [
        {
          "internalType": "address",
          "name": "operator",
          "type": "address"
        }
      ],
      "name": "ERC721InvalidOperator",
      "type": "error"
    },
    {
      "inputs": [
        {
          "internalType": "address",
          "name": "owner",
          "type": "address"
        }
      ],
      "name": "ERC721InvalidOwner",
      "type": "error"
    },
    {
      "inputs": [
        {
          "internalType": "address",
          "name": "receiver",
          "type": "address"
        }
      ],
      "name": "ERC721InvalidReceiver",
      "type": "error"
    },
    {
      "inputs": [
        {
          "internalType": "address",
          "name": "sender",
          "type": "address"
        }
      ],
      "name": "ERC721InvalidSender",
      "type": "error"
    },
    {
      "inputs": [
        {
          "internalType": "uint256",
          "name": "tokenId",
          "type": "uint256"
        }
      ],
      "name": "ERC721NonexistentToken",
      "type": "error"
    },
    {
      "inputs": [
        {
          "internalType": "address",
          "name": "owner",
          "type": "address"
        }
      ],
      "name": "OwnableInvalidOwner",
      "type": "error"
    },
    {
      "inputs": [
        {
          "internalType": "address",
          "name": "account",
          "type": "address"
        }
      ],
      "name": "OwnableUnauthorizedAccount",
      "type": "error"
    },
    {
      "inputs": [],
      "name": "ReentrancyGuardReentrantCall",
      "type": "error"
    },
    {
      "anonymous": false,
      "inputs": [
        {
          "indexed": true,
          "internalType": "address",
          "name": "owner",
          "type": "address"
        },
        {
          "indexed": true,
          "internalType": "address",
          "name": "approved",
          "type": "address"
        },
        {
          "indexed": true,
          "internalType": "uint256",
          "name": "tokenId",
          "type": "uint256"
        }
      ],
      "name": "Approval",
      "type": "event"
    },
    {
      "anonymous": false,
      "inputs": [
        {
          "indexed": true,
          "internalType": "address",
          "name": "owner",
          "type": "address"
        },
        {
          "indexed": true,
          "internalType": "address",
          "name": "operator",
          "type": "address"
        },
        {
          "indexed": false,
          "internalType": "bool",
          "name": "approved",
          "type": "bool"
        }
      ],
      "name": "ApprovalForAll",
      "type": "event"
    },
    {
      "anonymous": false,
      "inputs": [
        {
          "indexed": false,
          "internalType": "uint256",
          "name": "_fromTokenId",
          "type": "uint256"
        },
        {
          "indexed": false,
          "internalType": "uint256",
          "name": "_toTokenId",
          "type": "uint256"
        }
      ],
      "name": "BatchMetadataUpdate",
      "type": "event"
    },
    {
      "anonymous": false,
      "inputs": [
        {
          "indexed": false,
          "internalType": "uint256",
          "name": "_tokenId",
          "type": "uint256"
        }
      ],
      "name": "MetadataUpdate",
      "type": "event"
    },
    {
      "anonymous": false,
      "inputs": [
        {
          "indexed": true,
          "internalType": "address",
          "name": "previousOwner",
          "type": "address"
        },
        {
          "indexed": true,
          "internalType": "address",
          "name": "newOwner",
          "type": "address"
        }
      ],
      "name": "OwnershipTransferred",
      "type": "event"
    },
    {
      "anonymous": false,
      "inputs": [
        {
          "indexed": true,
          "internalType": "address",
          "name": "from",
          "type": "address"
        },
        {
          "indexed": true,
          "internalType": "address",
          "name": "to",
          "type": "address"
        },
        {
          "indexed": true,
          "internalType": "uint256",
          "name": "tokenId",
          "type": "uint256"
        }
      ],
      "name": "Transfer",
      "type": "event"
    },
    {
      "inputs": [],
      "name": "MAX_SUPPLY",
      "outputs": [
        {
          "internalType": "uint256",
          "name": "",
          "type": "uint256"
        }
      ],
      "stateMutability": "view",
      "type": "function"
    },
    {
      "inputs": [
        {
          "internalType": "address",
          "name": "to",
          "type": "address"
        },
        {
          "internalType": "uint256",
          "name": "tokenId",
          "type": "uint256"
        }
      ],
      "name": "approve",
      "outputs": [],
      "stateMutability": "nonpayable",
      "type": "function"
    },
    {
      "inputs": [
        {
          "internalType": "address",
          "name": "owner",
          "type": "address"
        }
      ],
      "name": "balanceOf",
      "outputs": [
        {
          "internalType": "uint256",
          "name": "",
          "type": "uint256"
        }
      ],
      "stateMutability": "view",
      "type": "function"
    },
    {
      "inputs": [
        {
          "internalType": "uint256",
          "name": "tokenId",
          "type": "uint256"
        }
      ],
      "name": "getApproved",
      "outputs": [
        {
          "internalType": "address",
          "name": "",
          "type": "address"
        }
      ],
      "stateMutability": "view",
      "type": "function"
    },
    {
      "inputs": [
        {
          "internalType": "address",
          "name": "owner",
          "type": "address"
        },
        {
          "internalType": "address",
          "name": "operator",
          "type": "address"
        }
      ],
      "name": "isApprovedForAll",
      "outputs": [
        {
          "internalType": "bool",
          "name": "",
          "type": "bool"
        }
      ],
      "stateMutability": "view",
      "type": "function"
    },
    {
      "inputs": [
        {
          "internalType": "address",
          "name": "recipient",
          "type": "address"
        }
      ],
      "name": "mintNFT",
      "outputs": [],
      "stateMutability": "payable",
      "type": "function"
    },
    {
      "inputs": [
        {
          "internalType": "address",
          "name": "recipient",
          "type": "address"
        }
      ],
      "name": "mintNFTOwner",
      "outputs": [],
      "stateMutability": "nonpayable",
      "type": "function"
    },
    {
      "inputs": [],
      "name": "mintPrice",
      "outputs": [
        {
          "internalType": "uint256",
          "name": "",
          "type": "uint256"
        }
      ],
      "stateMutability": "view",
      "type": "function"
    },
    {
      "inputs": [],
      "name": "name",
      "outputs": [
        {
          "internalType": "string",
          "name": "",
          "type": "string"
        }
      ],
      "stateMutability": "view",
      "type": "function"
    },
    {
      "inputs": [],
      "name": "owner",
      "outputs": [
        {
          "internalType": "address",
          "name": "",
          "type": "address"
        }
      ],
      "stateMutability": "view",
      "type": "function"
    },
    {
      "inputs": [
        {
          "internalType": "uint256",
          "name": "tokenId",
          "type": "uint256"
        }
      ],
      "name": "ownerOf",
      "outputs": [
        {
          "internalType": "address",
          "name": "",
          "type": "address"
        }
      ],
      "stateMutability": "view",
      "type": "function"
    },
    {
      "inputs": [],
      "name": "renounceOwnership",
      "outputs": [],
      "stateMutability": "nonpayable",
      "type": "function"
    },
    {
      "inputs": [
        {
          "internalType": "address",
          "name": "from",
          "type": "address"
        },
        {
          "internalType": "address",
          "name": "to",
          "type": "address"
        },
        {
          "internalType": "uint256",
          "name": "tokenId",
          "type": "uint256"
        }
      ],
      "name": "safeTransferFrom",
      "outputs": [],
      "stateMutability": "nonpayable",
      "type": "function"
    },
    {
      "inputs": [
        {
          "internalType": "address",
          "name": "from",
          "type": "address"
        },
        {
          "internalType": "address",
          "name": "to",
          "type": "address"
        },
        {
          "internalType": "uint256",
          "name": "tokenId",
          "type": "uint256"
        },
        {
          "internalType": "bytes",
          "name": "data",
          "type": "bytes"
        }
      ],
      "name": "safeTransferFrom",
      "outputs": [],
      "stateMutability": "nonpayable",
      "type": "function"
    },
    {
      "inputs": [
        {
          "internalType": "address",
          "name": "operator",
          "type": "address"
        },
        {
          "internalType": "bool",
          "name": "approved",
          "type": "bool"
        }
      ],
      "name": "setApprovalForAll",
      "outputs": [],
      "stateMutability": "nonpayable",
      "type": "function"
    },
    {
      "inputs": [
        {
          "internalType": "string",
          "name": "baseURI",
          "type": "string"
        }
      ],
      "name": "setBaseURI",
      "outputs": [],
      "stateMutability": "nonpayable",
      "type": "function"
    },
    {
      "inputs": [
        {
          "internalType": "bytes4",
          "name": "interfaceId",
          "type": "bytes4"
        }
      ],
      "name": "supportsInterface",
      "outputs": [
        {
          "internalType": "bool",
          "name": "",
          "type": "bool"
        }
      ],
      "stateMutability": "view",
      "type": "function"
    },
    {
      "inputs": [],
      "name": "symbol",
      "outputs": [
        {
          "internalType": "string",
          "name": "",
          "type": "string"
        }
      ],
      "stateMutability": "view",
      "type": "function"
    },
    {
      "inputs": [
        {
          "internalType": "uint256",
          "name": "tokenId",
          "type": "uint256"
        }
      ],
      "name": "tokenURI",
      "outputs": [
        {
          "internalType": "string",
          "name": "",
          "type": "string"
        }
      ],
      "stateMutability": "view",
      "type": "function"
    },
    {
      "inputs": [
        {
          "internalType": "address",
          "name": "from",
          "type": "address"
        },
        {
          "internalType": "address",
          "name": "to",
          "type": "address"
        },
        {
          "internalType": "uint256",
          "name": "tokenId",
          "type": "uint256"
        }
      ],
      "name": "transferFrom",
      "outputs": [],
      "stateMutability": "nonpayable",
      "type": "function"
    },
    {
      "inputs": [
        {
          "internalType": "address",
          "name": "newOwner",
          "type": "address"
        }
      ],
      "name": "transferOwnership",
      "outputs": [],
      "stateMutability": "nonpayable",
      "type": "function"
    },
    {
      "inputs": [],
      "name": "withdraw",
      "outputs": [],
      "stateMutability": "nonpayable",
      "type": "function"
    }
  ],
  "bytecode": "0x608060405260006009556611c37937e08000600a553480156200002157600080fd5b50604051620035f3380380620035f38339818101604052810190620000479190620004e3565b336040518060400160405280600a81526020017f596f6b7554616c6b6965000000000000000000000000000000000000000000008152506040518060400160405280600381526020017f594b5400000000000000000000000000000000000000000000000000000000008152508160009081620000c591906200077f565b508060019081620000d791906200077f565b505050600073ffffffffffffffffffffffffffffffffffffffff168173ffffffffffffffffffffffffffffffffffffffff16036200014f5760006040517f1e4fbdf7000000000000000000000000000000000000000000000000000000008152600401620001469190620008ab565b60405180910390fd5b62000160816200019160201b60201c565b506001600881905550620001796200025760201b60201c565b6200018a81620002f960201b60201c565b50620008c8565b6000600760009054906101000a900473ffffffffffffffffffffffffffffffffffffffff16905081600760006101000a81548173ffffffffffffffffffffffffffffffffffffffff021916908373ffffffffffffffffffffffffffffffffffffffff1602179055508173ffffffffffffffffffffffffffffffffffffffff168173ffffffffffffffffffffffffffffffffffffffff167f8be0079c531659141344cd1fd0a4f28419497f9722a3daafe3b4186f6b6457e060405160405180910390a35050565b620002676200031e60201b60201c565b73ffffffffffffffffffffffffffffffffffffffff166200028d6200032660201b60201c565b73ffffffffffffffffffffffffffffffffffffffff1614620002f757620002b96200031e60201b60201c565b6040517f118cdaa7000000000000000000000000000000000000000000000000000000008152600401620002ee9190620008ab565b60405180910390fd5b565b620003096200025760201b60201c565b80600b90816200031a91906200077f565b5050565b600033905090565b6000600760009054906101000a900473ffffffffffffffffffffffffffffffffffffffff16905090565b6000604051905090565b600080fd5b600080fd5b600080fd5b600080fd5b6000601f19601f8301169050919050565b7f4e487b7100000000000000000000000000000000000000000000000000000000600052604160045260246000fd5b620003b9826200036e565b810181811067ffffffffffffffff82111715620003db57620003da6200037f565b5b80604052505050565b6000620003f062000350565b9050620003fe8282620003ae565b919050565b600067ffffffffffffffff8211156200042157620004206200037f565b5b6200042c826200036e565b9050602081019050919050565b60005b83811015620004595780820151818401526020810190506200043c565b60008484015250505050565b60006200047c620004768462000403565b620003e4565b9050828152602081018484840111156200049b576200049a62000369565b5b620004a884828562000439565b509392505050565b600082601f830112620004c857620004c762000364565b5b8151620004da84826020860162000465565b91505092915050565b600060208284031215620004fc57620004fb6200035a565b5b600082015167ffffffffffffffff8111156200051d576200051c6200035f565b5b6200052b84828501620004b0565b91505092915050565b600081519050919050565b7f4e487b7100000000000000000000000000000000000000000000000000000000600052602260045260246000fd5b600060028204905060018216806200058757607f821691505b6020821081036200059d576200059c6200053f565b5b50919050565b60008190508160005260206000209050919050565b60006020601f8301049050919050565b600082821b905092915050565b600060088302620006077fffffffffffffffffffffffffffffffffffffffffffffffffffffffffffffffff82620005c8565b620006138683620005c8565b95508019841693508086168417925050509392505050565b6000819050919050565b6000819050919050565b6000620006606200065a62000654846200062b565b62000635565b6200062b565b9050919050565b6000819050919050565b6200067c836200063f565b620006946200068b8262000667565b848454620005d5565b825550505050565b600090565b620006ab6200069c565b620006b881848462000671565b505050565b5b81811015620006e057620006d4600082620006a1565b600181019050620006be565b5050565b601f8211156200072f57620006f981620005a3565b6200070484620005b8565b8101602085101562000714578190505b6200072c6200072385620005b8565b830182620006bd565b50505b505050565b600082821c905092915050565b6000620007546000198460080262000734565b1980831691505092915050565b60006200076f838362000741565b9150826002028217905092915050565b6200078a8262000534565b67ffffffffffffffff811115620007a657620007a56200037f565b5b620007b282546200056e565b620007bf828285620006e4565b600060209050601f831160018114620007f75760008415620007e2578287015190505b620007ee858262000761565b8655506200085e565b601f1984166200080786620005a3565b60005b8281101562000831578489015182556001820191506020850194506020810190506200080a565b868310156200085157848901516200084d601f89168262000741565b8355505b6001600288020188555050505b505050505050565b600073ffffffffffffffffffffffffffffffffffffffff82169050919050565b6000620008938262000866565b9050919050565b620008a58162000886565b82525050565b6000602082019050620008c260008301846200089a565b92915050565b612d1b80620008d86000396000f3fe6080604052600436106101355760003560e01c80636352211e116100ab57806395d89b411161006f57806395d89b41146103f1578063a22cb4651461041c578063b88d4fde14610445578063c87b56dd1461046e578063e985e9c5146104ab578063f2fde38b146104e857610135565b80636352211e1461030a5780636817c76c1461034757806370a0823114610372578063715018a6146103af5780638da5cb5b146103c657610135565b806323b872dd116100fd57806323b872dd1461023157806332cb6b0c1461025a5780633ccfd60b1461028557806342842e0e1461029c57806354ba0f27146102c557806355f804b3146102e157610135565b806301ffc9a71461013a57806306fdde0314610177578063081812fc146101a2578063095ea7b3146101df5780630bb1a6b614610208575b600080fd5b34801561014657600080fd5b50610161600480360381019061015c9190611e81565b610511565b60405161016e9190611ec9565b60405180910390f35b34801561018357600080fd5b5061018c610572565b6040516101999190611f74565b60405180910390f35b3480156101ae57600080fd5b506101c960048036038101906101c49190611fcc565b610604565b6040516101d6919061203a565b60405180910390f35b3480156101eb57600080fd5b5061020660048036038101906102019190612081565b610620565b005b34801561021457600080fd5b5061022f600480360381019061022a91906120c1565b610636565b005b34801561023d57600080fd5b50610258600480360381019061025391906120ee565b610690565b005b34801561026657600080fd5b5061026f610792565b60405161027c9190612150565b60405180910390f35b34801561029157600080fd5b5061029a610798565b005b3480156102a857600080fd5b506102c360048036038101906102be91906120ee565b6108a8565b005b6102df60048036038101906102da91906120c1565b6108c8565b005b3480156102ed57600080fd5b50610308600480360381019061030391906122a0565b61095f565b005b34801561031657600080fd5b50610331600480360381019061032c9190611fcc565b61097a565b60405161033e919061203a565b60405180910390f35b34801561035357600080fd5b5061035c61098c565b6040516103699190612150565b60405180910390f35b34801561037e57600080fd5b50610399600480360381019061039491906120c1565b610992565b6040516103a69190612150565b60405180910390f35b3480156103bb57600080fd5b506103c4610a4c565b005b3480156103d257600080fd5b506103db610a60565b6040516103e8919061203a565b60405180910390f35b3480156103fd57600080fd5b50610406610a8a565b6040516104139190611f74565b60405180910390f35b34801561042857600080fd5b50610443600480360381019061043e9190612315565b610b1c565b005b34801561045157600080fd5b5061046c600480360381019061046791906123f6565b610b32565b005b34801561047a57600080fd5b5061049560048036038101906104909190611fcc565b610b4f565b6040516104a29190611f74565b60405180910390f35b3480156104b757600080fd5b506104d260048036038101906104cd9190612479565b610c25565b6040516104df9190611ec9565b60405180910390f35b3480156104f457600080fd5b5061050f600480360381019061050a91906120c1565b610cb9565b005b6000634906490660e01b7bffffffffffffffffffffffffffffffffffffffffffffffffffffffff1916827bffffffffffffffffffffffffffffffffffffffffffffffffffffffff1916148061056b575061056a82610d3f565b5b9050919050565b606060008054610581906124e8565b80601f01602080910402602001604051908101604052809291908181526020018280546105ad906124e8565b80156105fa5780601f106105cf576101008083540402835291602001916105fa565b820191906000526020600020905b8154815290600101906020018083116105dd57829003601f168201915b5050505050905090565b600061060f82610e21565b5061061982610ea9565b9050919050565b610632828261062d610ee6565b610eee565b5050565b61063e610f00565b61048060095410610684576040517f08c379a000000000000000000000000000000000000000000000000000000000815260040161067b90612565565b60405180910390fd5b61068d81610f87565b50565b600073ffffffffffffffffffffffffffffffffffffffff168273ffffffffffffffffffffffffffffffffffffffff16036107025760006040517f64a0ae920000000000000000000000000000000000000000000000000000000081526004016106f9919061203a565b60405180910390fd5b60006107168383610711610ee6565b610fc6565b90508373ffffffffffffffffffffffffffffffffffffffff168173ffffffffffffffffffffffffffffffffffffffff161461078c578382826040517f64283d7b00000000000000000000000000000000000000000000000000000000815260040161078393929190612585565b60405180910390fd5b50505050565b61048081565b6107a0610f00565b6107a86111e0565b6000479050600081116107f0576040517f08c379a00000000000000000000000000000000000000000000000000000000081526004016107e790612608565b60405180910390fd5b60003373ffffffffffffffffffffffffffffffffffffffff168260405161081690612659565b60006040518083038185875af1925050503d8060008114610853576040519150601f19603f3d011682016040523d82523d6000602084013e610858565b606091505b505090508061089c576040517f08c379a0000000000000000000000000000000000000000000000000000000008152600401610893906126ba565b60405180910390fd5b50506108a6611226565b565b6108c383838360405180602001604052806000815250610b32565b505050565b6104806009541061090e576040517f08c379a000000000000000000000000000000000000000000000000000000000815260040161090590612565565b60405180910390fd5b600a54341015610953576040517f08c379a000000000000000000000000000000000000000000000000000000000815260040161094a9061274c565b60405180910390fd5b61095c81610f87565b50565b610967610f00565b80600b90816109769190612918565b5050565b600061098582610e21565b9050919050565b600a5481565b60008073ffffffffffffffffffffffffffffffffffffffff168273ffffffffffffffffffffffffffffffffffffffff1603610a055760006040517f89c62b640000000000000000000000000000000000000000000000000000000081526004016109fc919061203a565b60405180910390fd5b600360008373ffffffffffffffffffffffffffffffffffffffff1673ffffffffffffffffffffffffffffffffffffffff168152602001908152602001600020549050919050565b610a54610f00565b610a5e6000611230565b565b6000600760009054906101000a900473ffffffffffffffffffffffffffffffffffffffff16905090565b606060018054610a99906124e8565b80601f0160208091040260200160405190810160405280929190818152602001828054610ac5906124e8565b8015610b125780601f10610ae757610100808354040283529160200191610b12565b820191906000526020600020905b815481529060010190602001808311610af557829003601f168201915b5050505050905090565b610b2e610b27610ee6565b83836112f6565b5050565b610b3d848484610690565b610b4984848484611465565b50505050565b6060600073ffffffffffffffffffffffffffffffffffffffff16610b728361161c565b73ffffffffffffffffffffffffffffffffffffffff1603610bc8576040517f08c379a0000000000000000000000000000000000000000000000000000000008152600401610bbf90612a5c565b60405180910390fd5b6000610bd2611659565b90506000815111610bf25760405180602001604052806000815250610c1d565b80610bfc846116eb565b604051602001610c0d929190612b04565b6040516020818303038152906040525b915050919050565b6000600560008473ffffffffffffffffffffffffffffffffffffffff1673ffffffffffffffffffffffffffffffffffffffff16815260200190815260200160002060008373ffffffffffffffffffffffffffffffffffffffff1673ffffffffffffffffffffffffffffffffffffffff16815260200190815260200160002060009054906101000a900460ff16905092915050565b610cc1610f00565b600073ffffffffffffffffffffffffffffffffffffffff168173ffffffffffffffffffffffffffffffffffffffff1603610d335760006040517f1e4fbdf7000000000000000000000000000000000000000000000000000000008152600401610d2a919061203a565b60405180910390fd5b610d3c81611230565b50565b60007f80ac58cd000000000000000000000000000000000000000000000000000000007bffffffffffffffffffffffffffffffffffffffffffffffffffffffff1916827bffffffffffffffffffffffffffffffffffffffffffffffffffffffff19161480610e0a57507f5b5e139f000000000000000000000000000000000000000000000000000000007bffffffffffffffffffffffffffffffffffffffffffffffffffffffff1916827bffffffffffffffffffffffffffffffffffffffffffffffffffffffff1916145b80610e1a5750610e19826117b9565b5b9050919050565b600080610e2d8361161c565b9050600073ffffffffffffffffffffffffffffffffffffffff168173ffffffffffffffffffffffffffffffffffffffff1603610ea057826040517f7e273289000000000000000000000000000000000000000000000000000000008152600401610e979190612150565b60405180910390fd5b80915050919050565b60006004600083815260200190815260200160002060009054906101000a900473ffffffffffffffffffffffffffffffffffffffff169050919050565b600033905090565b610efb8383836001611823565b505050565b610f08610ee6565b73ffffffffffffffffffffffffffffffffffffffff16610f26610a60565b73ffffffffffffffffffffffffffffffffffffffff1614610f8557610f49610ee6565b6040517f118cdaa7000000000000000000000000000000000000000000000000000000008152600401610f7c919061203a565b60405180910390fd5b565b6000600954905060096000815480929190610fa190612b62565b9190505550610fb082826119e8565b610fc281610fbd83610b4f565b611ae1565b5050565b600080610fd28461161c565b9050600073ffffffffffffffffffffffffffffffffffffffff168373ffffffffffffffffffffffffffffffffffffffff161461101457611013818486611b3d565b5b600073ffffffffffffffffffffffffffffffffffffffff168173ffffffffffffffffffffffffffffffffffffffff16146110a557611056600085600080611823565b6001600360008373ffffffffffffffffffffffffffffffffffffffff1673ffffffffffffffffffffffffffffffffffffffff168152602001908152602001600020600082825403925050819055505b600073ffffffffffffffffffffffffffffffffffffffff168573ffffffffffffffffffffffffffffffffffffffff1614611128576001600360008773ffffffffffffffffffffffffffffffffffffffff1673ffffffffffffffffffffffffffffffffffffffff168152602001908152602001600020600082825401925050819055505b846002600086815260200190815260200160002060006101000a81548173ffffffffffffffffffffffffffffffffffffffff021916908373ffffffffffffffffffffffffffffffffffffffff160217905550838573ffffffffffffffffffffffffffffffffffffffff168273ffffffffffffffffffffffffffffffffffffffff167fddf252ad1be2c89b69c2b068fc378daa952ba7f163c4a11628f55a4df523b3ef60405160405180910390a4809150509392505050565b60026008540361121c576040517f3ee5aeb500000000000000000000000000000000000000000000000000000000815260040160405180910390fd5b6002600881905550565b6001600881905550565b6000600760009054906101000a900473ffffffffffffffffffffffffffffffffffffffff16905081600760006101000a81548173ffffffffffffffffffffffffffffffffffffffff021916908373ffffffffffffffffffffffffffffffffffffffff1602179055508173ffffffffffffffffffffffffffffffffffffffff168173ffffffffffffffffffffffffffffffffffffffff167f8be0079c531659141344cd1fd0a4f28419497f9722a3daafe3b4186f6b6457e060405160405180910390a35050565b600073ffffffffffffffffffffffffffffffffffffffff168273ffffffffffffffffffffffffffffffffffffffff160361136757816040517f5b08ba1800000000000000000000000000000000000000000000000000000000815260040161135e919061203a565b60405180910390fd5b80600560008573ffffffffffffffffffffffffffffffffffffffff1673ffffffffffffffffffffffffffffffffffffffff16815260200190815260200160002060008473ffffffffffffffffffffffffffffffffffffffff1673ffffffffffffffffffffffffffffffffffffffff16815260200190815260200160002060006101000a81548160ff0219169083151502179055508173ffffffffffffffffffffffffffffffffffffffff168373ffffffffffffffffffffffffffffffffffffffff167f17307eab39ab6107e8899845ad3d59bd9653f200f220920489ca2b5937696c31836040516114589190611ec9565b60405180910390a3505050565b60008373ffffffffffffffffffffffffffffffffffffffff163b1115611616578273ffffffffffffffffffffffffffffffffffffffff1663150b7a026114a9610ee6565b8685856040518563ffffffff1660e01b81526004016114cb9493929190612bff565b6020604051808303816000875af192505050801561150757506040513d601f19601f820116820180604052508101906115049190612c60565b60015b61158b573d8060008114611537576040519150601f19603f3d011682016040523d82523d6000602084013e61153c565b606091505b50600081510361158357836040517f64a0ae9200000000000000000000000000000000000000000000000000000000815260040161157a919061203a565b60405180910390fd5b805181602001fd5b63150b7a0260e01b7bffffffffffffffffffffffffffffffffffffffffffffffffffffffff1916817bffffffffffffffffffffffffffffffffffffffffffffffffffffffff19161461161457836040517f64a0ae9200000000000000000000000000000000000000000000000000000000815260040161160b919061203a565b60405180910390fd5b505b50505050565b60006002600083815260200190815260200160002060009054906101000a900473ffffffffffffffffffffffffffffffffffffffff169050919050565b6060600b8054611668906124e8565b80601f0160208091040260200160405190810160405280929190818152602001828054611694906124e8565b80156116e15780601f106116b6576101008083540402835291602001916116e1565b820191906000526020600020905b8154815290600101906020018083116116c457829003601f168201915b5050505050905090565b6060600060016116fa84611c01565b01905060008167ffffffffffffffff81111561171957611718612175565b5b6040519080825280601f01601f19166020018201604052801561174b5781602001600182028036833780820191505090505b509050600082602001820190505b6001156117ae578080600190039150507f3031323334353637383961626364656600000000000000000000000000000000600a86061a8153600a85816117a2576117a1612c8d565b5b04945060008503611759575b819350505050919050565b60007f01ffc9a7000000000000000000000000000000000000000000000000000000007bffffffffffffffffffffffffffffffffffffffffffffffffffffffff1916827bffffffffffffffffffffffffffffffffffffffffffffffffffffffff1916149050919050565b808061185c5750600073ffffffffffffffffffffffffffffffffffffffff168273ffffffffffffffffffffffffffffffffffffffff1614155b1561199057600061186c84610e21565b9050600073ffffffffffffffffffffffffffffffffffffffff168373ffffffffffffffffffffffffffffffffffffffff16141580156118d757508273ffffffffffffffffffffffffffffffffffffffff168173ffffffffffffffffffffffffffffffffffffffff1614155b80156118ea57506118e88184610c25565b155b1561192c57826040517fa9fbf51f000000000000000000000000000000000000000000000000000000008152600401611923919061203a565b60405180910390fd5b811561198e57838573ffffffffffffffffffffffffffffffffffffffff168273ffffffffffffffffffffffffffffffffffffffff167f8c5be1e5ebec7d5bd14f71427d1e84f3dd0314c0f7b2291e5b200ac8c7c3b92560405160405180910390a45b505b836004600085815260200190815260200160002060006101000a81548173ffffffffffffffffffffffffffffffffffffffff021916908373ffffffffffffffffffffffffffffffffffffffff16021790555050505050565b600073ffffffffffffffffffffffffffffffffffffffff168273ffffffffffffffffffffffffffffffffffffffff1603611a5a5760006040517f64a0ae92000000000000000000000000000000000000000000000000000000008152600401611a51919061203a565b60405180910390fd5b6000611a6883836000610fc6565b9050600073ffffffffffffffffffffffffffffffffffffffff168173ffffffffffffffffffffffffffffffffffffffff1614611adc5760006040517f73c6ac6e000000000000000000000000000000000000000000000000000000008152600401611ad3919061203a565b60405180910390fd5b505050565b80600660008481526020019081526020016000209081611b019190612918565b507ff8e1a15aba9398e019f0b49df1a4fde98ee17ae345cb5f6b5e2c27f5033e8ce782604051611b319190612150565b60405180910390a15050565b611b48838383611d54565b611bfc57600073ffffffffffffffffffffffffffffffffffffffff168373ffffffffffffffffffffffffffffffffffffffff1603611bbd57806040517f7e273289000000000000000000000000000000000000000000000000000000008152600401611bb49190612150565b60405180910390fd5b81816040517f177e802f000000000000000000000000000000000000000000000000000000008152600401611bf3929190612cbc565b60405180910390fd5b505050565b600080600090507a184f03e93ff9f4daa797ed6e38ed64bf6a1f0100000000000000008310611c5f577a184f03e93ff9f4daa797ed6e38ed64bf6a1f0100000000000000008381611c5557611c54612c8d565b5b0492506040810190505b6d04ee2d6d415b85acef81000000008310611c9c576d04ee2d6d415b85acef81000000008381611c9257611c91612c8d565b5b0492506020810190505b662386f26fc100008310611ccb57662386f26fc100008381611cc157611cc0612c8d565b5b0492506010810190505b6305f5e1008310611cf4576305f5e1008381611cea57611ce9612c8d565b5b0492506008810190505b6127108310611d19576127108381611d0f57611d0e612c8d565b5b0492506004810190505b60648310611d3c5760648381611d3257611d31612c8d565b5b0492506002810190505b600a8310611d4b576001810190505b80915050919050565b60008073ffffffffffffffffffffffffffffffffffffffff168373ffffffffffffffffffffffffffffffffffffffff1614158015611e0c57508273ffffffffffffffffffffffffffffffffffffffff168473ffffffffffffffffffffffffffffffffffffffff161480611dcd5750611dcc8484610c25565b5b80611e0b57508273ffffffffffffffffffffffffffffffffffffffff16611df383610ea9565b73ffffffffffffffffffffffffffffffffffffffff16145b5b90509392505050565b6000604051905090565b600080fd5b600080fd5b60007fffffffff0000000000000000000000000000000000000000000000000000000082169050919050565b611e5e81611e29565b8114611e6957600080fd5b50565b600081359050611e7b81611e55565b92915050565b600060208284031215611e9757611e96611e1f565b5b6000611ea584828501611e6c565b91505092915050565b60008115159050919050565b611ec381611eae565b82525050565b6000602082019050611ede6000830184611eba565b92915050565b600081519050919050565b600082825260208201905092915050565b60005b83811015611f1e578082015181840152602081019050611f03565b60008484015250505050565b6000601f19601f8301169050919050565b6000611f4682611ee4565b611f508185611eef565b9350611f60818560208601611f00565b611f6981611f2a565b840191505092915050565b60006020820190508181036000830152611f8e8184611f3b565b905092915050565b6000819050919050565b611fa981611f96565b8114611fb457600080fd5b50565b600081359050611fc681611fa0565b92915050565b600060208284031215611fe257611fe1611e1f565b5b6000611ff084828501611fb7565b91505092915050565b600073ffffffffffffffffffffffffffffffffffffffff82169050919050565b600061202482611ff9565b9050919050565b61203481612019565b82525050565b600060208201905061204f600083018461202b565b92915050565b61205e81612019565b811461206957600080fd5b50565b60008135905061207b81612055565b92915050565b6000806040838503121561209857612097611e1f565b5b60006120a68582860161206c565b92505060206120b785828601611fb7565b9150509250929050565b6000602082840312156120d7576120d6611e1f565b5b60006120e58482850161206c565b91505092915050565b60008060006060848603121561210757612106611e1f565b5b60006121158682870161206c565b93505060206121268682870161206c565b925050604061213786828701611fb7565b9150509250925092565b61214a81611f96565b82525050565b60006020820190506121656000830184612141565b92915050565b600080fd5b600080fd5b7f4e487b7100000000000000000000000000000000000000000000000000000000600052604160045260246000fd5b6121ad82611f2a565b810181811067ffffffffffffffff821117156121cc576121cb612175565b5b80604052505050565b60006121df611e15565b90506121eb82826121a4565b919050565b600067ffffffffffffffff82111561220b5761220a612175565b5b61221482611f2a565b9050602081019050919050565b82818337600083830152505050565b600061224361223e846121f0565b6121d5565b90508281526020810184848401111561225f5761225e612170565b5b61226a848285612221565b509392505050565b600082601f8301126122875761228661216b565b5b8135612297848260208601612230565b91505092915050565b6000602082840312156122b6576122b5611e1f565b5b600082013567ffffffffffffffff8111156122d4576122d3611e24565b5b6122e084828501612272565b91505092915050565b6122f281611eae565b81146122fd57600080fd5b50565b60008135905061230f816122e9565b92915050565b6000806040838503121561232c5761232b611e1f565b5b600061233a8582860161206c565b925050602061234b85828601612300565b9150509250929050565b600067ffffffffffffffff8211156123705761236f612175565b5b61237982611f2a565b9050602081019050919050565b600061239961239484612355565b6121d5565b9050828152602081018484840111156123b5576123b4612170565b5b6123c0848285612221565b509392505050565b600082601f8301126123dd576123dc61216b565b5b81356123ed848260208601612386565b91505092915050565b600080600080608085870312156124105761240f611e1f565b5b600061241e8782880161206c565b945050602061242f8782880161206c565b935050604061244087828801611fb7565b925050606085013567ffffffffffffffff81111561246157612460611e24565b5b61246d878288016123c8565b91505092959194509250565b600080604083850312156124905761248f611e1f565b5b600061249e8582860161206c565b92505060206124af8582860161206c565b9150509250929050565b7f4e487b7100000000000000000000000000000000000000000000000000000000600052602260045260246000fd5b6000600282049050600182168061250057607f821691505b602082108103612513576125126124b9565b5b50919050565b7f4d617820737570706c7920726561636865642e00000000000000000000000000600082015250565b600061254f601383611eef565b915061255a82612519565b602082019050919050565b6000602082019050818103600083015261257e81612542565b9050919050565b600060608201905061259a600083018661202b565b6125a76020830185612141565b6125b4604083018461202b565b949350505050565b7f4e6f206574686572206c65667420746f20776974686472617700000000000000600082015250565b60006125f2601983611eef565b91506125fd826125bc565b602082019050919050565b60006020820190508181036000830152612621816125e5565b9050919050565b600081905092915050565b50565b6000612643600083612628565b915061264e82612633565b600082019050919050565b600061266482612636565b9150819050919050565b7f5472616e73666572206661696c65642e00000000000000000000000000000000600082015250565b60006126a4601083611eef565b91506126af8261266e565b602082019050919050565b600060208201905081810360008301526126d381612697565b9050919050565b7f4e6f7420656e6f756768204554482073656e743b20636865636b20707269636560008201527f2100000000000000000000000000000000000000000000000000000000000000602082015250565b6000612736602183611eef565b9150612741826126da565b604082019050919050565b6000602082019050818103600083015261276581612729565b9050919050565b60008190508160005260206000209050919050565b60006020601f8301049050919050565b600082821b905092915050565b6000600883026127ce7fffffffffffffffffffffffffffffffffffffffffffffffffffffffffffffffff82612791565b6127d88683612791565b95508019841693508086168417925050509392505050565b6000819050919050565b600061281561281061280b84611f96565b6127f0565b611f96565b9050919050565b6000819050919050565b61282f836127fa565b61284361283b8261281c565b84845461279e565b825550505050565b600090565b61285861284b565b612863818484612826565b505050565b5b818110156128875761287c600082612850565b600181019050612869565b5050565b601f8211156128cc5761289d8161276c565b6128a684612781565b810160208510156128b5578190505b6128c96128c185612781565b830182612868565b50505b505050565b600082821c905092915050565b60006128ef600019846008026128d1565b1980831691505092915050565b600061290883836128de565b9150826002028217905092915050565b61292182611ee4565b67ffffffffffffffff81111561293a57612939612175565b5b61294482546124e8565b61294f82828561288b565b600060209050601f8311600181146129825760008415612970578287015190505b61297a85826128fc565b8655506129e2565b601f1984166129908661276c565b60005b828110156129b857848901518255600182019150602085019450602081019050612993565b868310156129d557848901516129d1601f8916826128de565b8355505b6001600288020188555050505b505050505050565b7f4552433732314d657461646174613a2055524920717565727920666f72206e6f60008201527f6e6578697374656e7420746f6b656e0000000000000000000000000000000000602082015250565b6000612a46602f83611eef565b9150612a51826129ea565b604082019050919050565b60006020820190508181036000830152612a7581612a39565b9050919050565b600081905092915050565b6000612a9282611ee4565b612a9c8185612a7c565b9350612aac818560208601611f00565b80840191505092915050565b7f2e6a736f6e000000000000000000000000000000000000000000000000000000600082015250565b6000612aee600583612a7c565b9150612af982612ab8565b600582019050919050565b6000612b108285612a87565b9150612b1c8284612a87565b9150612b2782612ae1565b91508190509392505050565b7f4e487b7100000000000000000000000000000000000000000000000000000000600052601160045260246000fd5b6000612b6d82611f96565b91507fffffffffffffffffffffffffffffffffffffffffffffffffffffffffffffffff8203612b9f57612b9e612b33565b5b600182019050919050565b600081519050919050565b600082825260208201905092915050565b6000612bd182612baa565b612bdb8185612bb5565b9350612beb818560208601611f00565b612bf481611f2a565b840191505092915050565b6000608082019050612c14600083018761202b565b612c21602083018661202b565b612c2e6040830185612141565b8181036060830152612c408184612bc6565b905095945050505050565b600081519050612c5a81611e55565b92915050565b600060208284031215612c7657612c75611e1f565b5b6000612c8484828501612c4b565b91505092915050565b7f4e487b7100000000000000000000000000000000000000000000000000000000600052601260045260246000fd5b6000604082019050612cd1600083018561202b565b612cde6020830184612141565b939250505056fea264697066735822122062ad1ee522dc48e1820d63ec005267fccff32a3efa50bf0cb9f11ab1941d028564736f6c63430008180033",
  "linkReferences": {},
  "deployedLinkReferences": {}
}